:020000041010DA
:10000000737004309711F00F9381418A1721F00F1C
:100010001301417F17150000130545E79705F00F01
:10002000938545FE1386818063FAC500832205000F
:1000300023A0550011059105E3EAC5FE13858180D3
:10004000938581806377B500232005001105E36D5A
:10005000B5FECD250145814521206F00705F01A0CF
:10006000411106C622C426C2F377043023100100D2
:10007000835701001307703E6363F7041307902C46
:100080009306703E2311010083572100636EF70031
:100090000100835721008507C207C1832311F100A6
:1000A00083572100E376F7FE835701008507C207D7
:1000B000C1832310F10083570100E3F5F6FC4D2BBB
:1000C0001707F00F130787FE1C43B7460F009386F0
:1000D0000624B3D7D70237130040370601408144C6
:1000E00037340140FD17232EF3008327830093E765
:1000F00007022324F3008327830093E707102324B8
:10010000F3008327060A93E747002320F60A7525A4
:1001100085231707F00F130767F983220700B746F7
:100120000F0093860624B3D2D202371300408147D2
:1001300001478146054681450D65FD122320530286
:100140008322830093E2022023245300EF00F0284F
:100150000D65EF00D03F096505468145130505F49F
:10016000EF00304035A8B7F7111003A7074083A769
:10017000076093C7F7FF6382E706B707121003A76C
:10018000078083A707A093C7F7FF6397E70437A704
:10019000A55A1307A7556391E7049D2015CD814407
:1001A000930790062320F440930760092320F4402E
:1001B000B7F71110984383A7072093C7F7FFE3947D
:1001C000E7FA3767A55A130757AAE39EE7F80D2801
:1001D00059F98D4763F29702D52837A75AA5130717
:1001E000A755E39CE7F8F3770430EF007043B717A7
:1001F0001010829781446DB7850493F4F40F4DB7C6
:10020000411122C437F411101305044006C626C25A
:10021000EF00207519C50145B240224492444101C6
:10022000828013050460352F7DF537041110B73433
:10023000014021A845752295EF00100E13040420FB
:10024000B7F7111069F9630FF4009307900623A024
:10025000F44093076009228523A0F440EF00007466
:1002600071D955BFB71710103D66B705111019A009
:10027000638AB7003387C700944318439107E38923
:10028000E6FE51BF37F41110B7A75AA59387A755BB
:10029000854605468A85130504403EC02D2F25FD61
:1002A000B767A55A938757AA854605468A851305D9
:1002B00004603EC00D2725F137F511105D2521FDA5
:1002C00013050420792D13351500B9B7311122C655
:1002D000196406C81304A4A5B73701401307900694
:1002E00023A0E7401307600923A0E740B727014098
:1002F000296723AC87C41307575A23ACE7C403A765
:10030000C7C1B70601401367070423AEE7C0985A78
:100310009C5A93063006B307F74063EAF6003706A7
:10032000014001001C5AB307F740E3FCF6FEB72773
:100330000140296723AC87C41307575A23ACE7C48D
:1003400003A7C7C1B70601401367070823AEE7C07C
:10035000985A9C5A93065004B307F74063EAF60094
:100360003706014001001C5AB307F740E3FCF6FED4
:10037000B727014003A7C7C0FD769386F67F758F28
:1003800023A6E7C003A7C7C0B7050200C1051D9B90
:1003900023A6E7C003A6C7C0B72601403707014020
:1003A0004D8E23A6C7C0130510034D46A54583A750
:1003B000C6C093E7170023A6F6C0032307031C5B00
:1003C000B307F3406368F60001001C5BB307F3401A
:1003D000E37CF6FE83A706C593F70710638A07142C
:1003E0000323070339A083A7020593F7071063814E
:1003F00007141C5B938206C0B307F340E375F5FE58
:100400008327070AE176DD16F58F2320F70A3C479C
:10041000B70602000D65D58F3CC7B727014003A77B
:10042000C7C08176FD16758F23A6E7C003A7C7C096
:10043000C166558F23A6E7C0EF007010231201009C
:1004400083574100130630061307902C930630069D
:10045000636FF6022313010083576100636EF70098
:100460000100835761008507C207C1832313F10090
:1004700083576100E376F7FE835741008507C20783
:10048000C1832312F10083574100E3F5F6FCB7273F
:10049000014003A7C7C0C176FD16758F23A6E7C02C
:1004A000370601400327060AE176DD16758F232003
:1004B000E60A03A7C7C00D65799B23A6E7C0296795
:1004C00023AC87C41307575A23ACE7C403A7C7C19B
:1004D0001377F7F323AEE7C0EF0070072310010096
:1004E000835701001307F07CE368F7DE1307902CB5
:1004F0009306F07C2311010083572100636EF700FF
:100500000100835721008507C207C1832311F10031
:1005100083572100E376F7FE835701008507C20762
:10052000C1832310F10083570100E3F5F6FC6DB39E
:1005300083A7C6C0F99B23A6F6C0032307031C5B51
:10054000B307F340E3E5F5E601001C5BB307F340B6
:10055000E3FCF5FEA9BD01A0397106C016C21AC49C
:100560001EC62AC82ECA32CC36CE3AD03ED2732509
:100570002034F32510347D287310153482409242C4
:100580002243B2434245D2456246F2460257925751
:1005900021617300203001A082808280828082806D
:1005A000828082808280828082808280828082803B
:1005B00082808280828082808280828082805111CB
:1005C000B70701E022C203A4473006C4C14763ED68
:1005D00087009706F00F9386E6A21317240036973C
:1005E0001C43B6978287653FB70701E023A2873097
:1005F000A240124431018280D137FDB75537EDB7A3
:100600004D37DDB74537CDB7793FF9BF713FE9BF0A
:10061000693FD9BF613FC9BF593FF9B7513FE9B7FA
:10062000493FD9B7413FC9B779377DBF71376DBFF2
:1006300069375DBF511122C206C42E84634B050089
:10064000F9476311F502993F2285A2401244310116
:1006500082809317150085832D476387E7000D4738
:100660006386E7001D3F01A0993FF9BF3537E9BF19
:10067000B71700409C431307000293F707036386F4
:10068000E70413070003638CE70241476381E70631
:10069000B7270140938707C0DC53054789839D8BAB
:1006A000638EE7020947638CE7040D47638BE70617
:1006B0001147638CE7001547638CE7048280A167CC
:1006C0001707F00F2324F79E8280B7177A009387CD
:1006D00007201707F00F232BF79C8280B7470F00E6
:1006E000938707241707F00F2322F79C82808967DE
:1006F000938707F41707F00F232AF79A8280B787AA
:100700001E00938707481707F00F2321F79A82806E
:10071000B727F400938707401707F00F2328F798AF
:100720008280B7173D00938707901707F00F232F9C
:10073000F7968280B71700409847511122C205648E
:1007400006C4418F996698C7372601409386A6A5AF
:100750002967232CD6C41307575A232CE6C4032534
:1007600046C2930506C00D992322A6C2232CD6C4E7
:10077000232CE6C4032646C213660601D0D1D4C397
:10078000D8C39043B78580FF9385F50C6D8E90C3D9
:10079000D4C3D8C3984398C3E13D9707000093871B
:1007A000E7DB73905730F36704301304048073243D
:1007B0004430A240124431018280511106C44D3DA3
:1007C0009707F00F9387878E9C4337470F00930658
:1007D000F723014563FEF60613070724638DE7063A
:1007E00037871E00130707486385E70C33D7E702F6
:1007F0001306300CB707004090CF9306C00394CF88
:100800008C4339430545C205C1818CC390CF94CF39
:100810008C437D1742074D8FB705C0F94D8F98C3A4
:1008200090CF94CF23A2670090CF94CF23A46700EA
:1008300090CF94CF3147D8C790CF37F70C0094CFE3
:100840001307071E98CB90CF94CF1307604CD8CBDB
:10085000A24031018280B70700409306300C94CF4C
:100860001307C00398CF90433705413E8D4542069C
:10087000418290C394CF98CF9043498E90C394CF38
:1008800098CFCCC394CF98CF8CC794CF98CF054640
:10089000D0C794CF3746040098CF130696E790CB85
:1008A00094CFA24098CF1307604CD8CB05453101B7
:1008B0008280B70700409306300C94CF1307C00323
:1008C00098CF90433705C17C99454206418290C339
:1008D00094CF98CF9043498E90C394CF98CFCCC3F8
:1008E00094CF98CF8CC794CF98CF1146D0C794CFD0
:1008F0003786060098CF130616AF55B7B7070040E6
:10090000D853D8D30547D8CF13071007D8CF13072C
:100910001009D8CF1307100CD8CFFD571CC1B7074B
:100920000040D8537DDFD8530546631AC702D8D399
:10093000D8CF13071007D8CF13071009D8CF130744
:10094000100CD8CFFD572320F510B7070040D8531F
:100950007DDFD853854701456313F7008280094541
:100960008280B7070040D853D8D30947D8CF1307A0
:100970002007D8CF13072009D8CF1307200CD8CFD2
:10098000FD571CC1B7070040D8537DDFD8538547BA
:1009900001456313F70082800D458280B707004050
:1009A000D853D8D31147D8CF13074007D8CF130750
:1009B0004009D8CF1307400CD8CFFD571CC1B7074B
:1009C0000040D8537DDFD853854701456313F700B6
:1009D000828015458280B7070040D853D8D3094795
:1009E000D8CF13072007D8CF13072009D8CF130774
:1009F000200CD8CFFD571CC1B7070040D8537DDF6E
:100A000083A3470285420D47639E5308D853D8D32A
:100A10001547D8CF13075007D8CF13075009D8CFA1
:100A20001307500CD8CFFD571CC1B7070040D8534F
:100A30007DDFDC530543194763966706511106C4F1
:100A400022C226C06384F60637071C10814701CAFC
:100A5000944111078507232ED7FEE39BC7FE2A8406
:100A6000713D4DE9B7070040D853D8D31947D8CFC7
:100A700013076007D8CF13076009D8CF1307600C9E
:100A8000D8CFFD571CC0B7070040D8537DDFD853DF
:100A90008547631BF7000147A240124482443A8510
:100AA000310182803A8582801D47FDB78143B306BC
:100AB000B54075D2B70700401383C7019304000700
:100AC00013040009C8539841B382D500C8D323202A
:100AD000030023209300232083001305000C232010
:100AE000A30023A0E200D8537DDFD8530545631C43
:100AF000A70003A502009841631EE5008503910548
:100B0000E392C3FC49BFA2401244054782443A85A0
:100B100031018280214749B7B7070040D8532A8660
:100B2000D8D30947D8CF13072007D8CF13072009F8
:100B3000D8CF1307200CD8CFFD571CC1B7070040F2
:100B4000D8537DDFCC5305470D45639FE506D85349
:100B5000411122C406C626C2D8D31547D8CF1307E1
:100B60005007D8CF13075009D8CF1307500CD8CF50
:100B7000FD571CC2370400405C50FDDF58508547CC
:100B80001945631EF702328532C08D3B29E55C5062
:100B900002465CD099475CCC930760075CCC930716
:100BA00060095CCC9307600C5CCCFD571CC2B70796
:100BB0000040D8537DDFD85385476318F700B24013
:100BC00022449244410182808280B2402244924475
:100BD0001D45410182802145DDB7B713004083A246
:100BE0008300211122CA26C893E2024023A45300A5
:100BF0003EC6B72701403AC403A74741054332C068
:100C000036C2638765129344F5FF658F23AAE740D8
:100C10000147AA860D4393171700B317F30093F506
:100C20001600CD433D44B722014093C7F7FF8586A8
:100C30009DC16364E40883A5C241ED8F23AEF240F9
:100C4000050793171700B317F30093F5160093C722
:100C5000F7FF8586F9FDE31577FE02478547630DAB
:100C6000F706B727014003A74740658F23A2E74057
:100C700032478547630DF706B727014003A70741B1
:100C8000658F23A8E74022478547630DF706B727FE
:100C9000014003A7C740658F23A6E7401247854759
:100CA000630DF706B727014003A787405244F98C2C
:100CB00023A49740C244610182809317170083A543
:100CC00002428117B317F30093C7F7FFED8F23A0FC
:100CD000F242E31777F651B7B727014003A7474021
:100CE000498F23A2E74032478547E317F7F8B72734
:100CF000014003A70741498F23A8E74022478547C2
:100D0000E317F7F8B727014003A7C740498F23A689
:100D1000E74012478547E317F7F8B727014003A7D5
:100D200087405244C244598D23A4A7406101828068
:100D30005244598D23AAA740C244610182803727BB
:100D40000140832707405D8D2320A7408280B7277D
:100D5000014003A707401345F5FF798D23A0A74065
:100D60008280B716004098461963B7370140336751
:100D7000670098C69302300C138707C0232C5700D6
:100D80001303C003232C670083A607C093F6F6FD68
:100D900023A0D7C0232C5700232C670003A707C02C
:100DA000ADE923A0E7C00985894763D9A706854730
:100DB000894611A0BA87058513871700E3CCA6FEE4
:100DC000373701402322F7408327474015EE93E74A
:100DD00007022322F740B73701409306300C23ACBB
:100DE000D7C09306C00323ACD7C003A707C01367BF
:100DF000070823A0E7C01307900623A0E7401307C6
:100E0000600923A0E740828093F7F7FD2322F74093
:100E1000D9B723A0E7C08947E3CBA7F881474DB7EF
:100E2000B73701409306300C23ACD7C09306C003FC
:100E300023ACD7C003A707C0B71600401377F7F756
:100E400023A0E7C09C4671777D17F98F9CC68280EE
:100E5000511122C206C497F7EFEF9387A71A2A848D
:100E600091C7814597000000E70000009707000048
:100E70009387870188431C5591C382972285EFF0A1
:020E80008FEDF4
:040E84004400002006
:100E8800E80510F0E60510F0FC0510F0000610F07B
:100E9800040610F0080610F00C0610F0100610F00A
:100EA800140610F0180610F01C0610F0200610F0BA
:100EB800240610F0280610F02C0610F0300610F06A
:100EC800F80510F00000000000000000000000001D
:100ED800000000000000000000000000000000000A
:100EE80000000000000000000000000000000000FA
:100EF80000000000000000000000000000000000EA
:100F080000000000000000000000000000000000D9
:100F180000000000000000000000000000000000C9
:100F2800000000000000000000127A00000000002D
:0400000510100000D7
:00000001FF
